{
  "contractName": "ERC721",
  "abi": [
    {
      "inputs": [],
      "stateMutability": "nonpayable",
      "type": "constructor"
    },
    {
      "anonymous": false,
      "inputs": [
        {
          "indexed": true,
          "internalType": "address",
          "name": "_owner",
          "type": "address"
        },
        {
          "indexed": true,
          "internalType": "address",
          "name": "_approved",
          "type": "address"
        },
        {
          "indexed": true,
          "internalType": "uint256",
          "name": "_tokenId",
          "type": "uint256"
        }
      ],
      "name": "Approval",
      "type": "event"
    },
    {
      "anonymous": false,
      "inputs": [
        {
          "indexed": true,
          "internalType": "address",
          "name": "_from",
          "type": "address"
        },
        {
          "indexed": true,
          "internalType": "address",
          "name": "_to",
          "type": "address"
        },
        {
          "indexed": true,
          "internalType": "uint256",
          "name": "_tokenId",
          "type": "uint256"
        }
      ],
      "name": "Transfer",
      "type": "event"
    },
    {
      "inputs": [
        {
          "internalType": "bytes4",
          "name": "interfaceID",
          "type": "bytes4"
        }
      ],
      "name": "supportsInterface",
      "outputs": [
        {
          "internalType": "bool",
          "name": "",
          "type": "bool"
        }
      ],
      "stateMutability": "view",
      "type": "function"
    },
    {
      "inputs": [
        {
          "internalType": "address",
          "name": "_owner",
          "type": "address"
        }
      ],
      "name": "balanceOf",
      "outputs": [
        {
          "internalType": "uint256",
          "name": "",
          "type": "uint256"
        }
      ],
      "stateMutability": "view",
      "type": "function"
    },
    {
      "inputs": [
        {
          "internalType": "uint256",
          "name": "_tokenId",
          "type": "uint256"
        }
      ],
      "name": "ownerOf",
      "outputs": [
        {
          "internalType": "address",
          "name": "",
          "type": "address"
        }
      ],
      "stateMutability": "view",
      "type": "function"
    },
    {
      "inputs": [
        {
          "internalType": "address",
          "name": "_from",
          "type": "address"
        },
        {
          "internalType": "address",
          "name": "_to",
          "type": "address"
        },
        {
          "internalType": "uint256",
          "name": "_tokenId",
          "type": "uint256"
        }
      ],
      "name": "transferFrom",
      "outputs": [],
      "stateMutability": "nonpayable",
      "type": "function"
    },
    {
      "inputs": [
        {
          "internalType": "address",
          "name": "_to",
          "type": "address"
        },
        {
          "internalType": "uint256",
          "name": "tokenId",
          "type": "uint256"
        }
      ],
      "name": "approve",
      "outputs": [],
      "stateMutability": "nonpayable",
      "type": "function"
    },
    {
      "inputs": [
        {
          "internalType": "uint256",
          "name": "_tokenId",
          "type": "uint256"
        }
      ],
      "name": "getApproved",
      "outputs": [
        {
          "internalType": "address",
          "name": "",
          "type": "address"
        }
      ],
      "stateMutability": "view",
      "type": "function"
    }
  ],
  "bytecode": "0x60806040523480156200001157600080fd5b50620000437f01ffc9a7a5cef8baa21ed3c5c0d7e23accb804b619e9333b597f47a0d84076e2620000be60201b60201c565b620000b87f22c82707ba960a14c7592ffb6b8cfaa073fed0048a84cc7fa41f6b5bd8e7f2e47f3a6eb71757dfc6e784c1459d26270140c2c147d95ca985c80026fc5301c3eca17f8a7e378434598edc36d108689a030cbc9d7d465de4f74c71bae1028eed6a881b1818620000be60201b60201c565b62000219565b63ffffffff60e01b817bffffffffffffffffffffffffffffffffffffffffffffffffffffffff191614156200012a576040517f08c379a00000000000000000000000000000000000000000000000000000000081526004016200012190620001f7565b60405180910390fd5b6001600080837bffffffffffffffffffffffffffffffffffffffffffffffffffffffff19167bffffffffffffffffffffffffffffffffffffffffffffffffffffffff1916815260200190815260200160002060006101000a81548160ff02191690831515021790555050565b600082825260208201905092915050565b7f496e76616c696420696e74657266616365207265717565737400000000000000600082015250565b6000620001df60198362000196565b9150620001ec82620001a7565b602082019050919050565b600060208201905081810360008301526200021281620001d0565b9050919050565b61108e80620002296000396000f3fe608060405234801561001057600080fd5b50600436106100625760003560e01c806301ffc9a714610067578063081812fc14610097578063095ea7b3146100c757806323b872dd146100e35780636352211e146100ff57806370a082311461012f575b600080fd5b610081600480360381019061007c91906109a4565b61015f565b60405161008e91906109ec565b60405180910390f35b6100b160048036038101906100ac9190610a3d565b6101c6565b6040516100be9190610aab565b60405180910390f35b6100e160048036038101906100dc9190610af2565b610203565b005b6100fd60048036038101906100f89190610b32565b61039f565b005b61011960048036038101906101149190610a3d565b6103c2565b6040516101269190610aab565b60405180910390f35b61014960048036038101906101449190610b85565b610474565b6040516101569190610bc1565b60405180910390f35b6000806000837bffffffffffffffffffffffffffffffffffffffffffffffffffffffff19167bffffffffffffffffffffffffffffffffffffffffffffffffffffffff1916815260200190815260200160002060009054906101000a900460ff169050919050565b60006003600083815260200190815260200160002060009054906101000a900473ffffffffffffffffffffffffffffffffffffffff169050919050565b600061020e826103c2565b90508073ffffffffffffffffffffffffffffffffffffffff168373ffffffffffffffffffffffffffffffffffffffff16141561027f576040517f08c379a000000000000000000000000000000000000000000000000000000000815260040161027690610c5f565b60405180910390fd5b8073ffffffffffffffffffffffffffffffffffffffff163373ffffffffffffffffffffffffffffffffffffffff16146102ed576040517f08c379a00000000000000000000000000000000000000000000000000000000081526004016102e490610cf1565b60405180910390fd5b826003600084815260200190815260200160002060006101000a81548173ffffffffffffffffffffffffffffffffffffffff021916908373ffffffffffffffffffffffffffffffffffffffff160217905550818373ffffffffffffffffffffffffffffffffffffffff168273ffffffffffffffffffffffffffffffffffffffff167f8c5be1e5ebec7d5bd14f71427d1e84f3dd0314c0f7b2291e5b200ac8c7c3b92560405160405180910390a4505050565b6103a93382610533565b6103b257600080fd5b6103bd838383610600565b505050565b6000806001600084815260200190815260200160002060009054906101000a900473ffffffffffffffffffffffffffffffffffffffff169050600073ffffffffffffffffffffffffffffffffffffffff168173ffffffffffffffffffffffffffffffffffffffff16141561046b576040517f08c379a000000000000000000000000000000000000000000000000000000000815260040161046290610d83565b60405180910390fd5b80915050919050565b60008073ffffffffffffffffffffffffffffffffffffffff168273ffffffffffffffffffffffffffffffffffffffff1614156104e5576040517f08c379a00000000000000000000000000000000000000000000000000000000081526004016104dc90610d83565b60405180910390fd5b61052c600260008473ffffffffffffffffffffffffffffffffffffffff1673ffffffffffffffffffffffffffffffffffffffff168152602001908152602001600020610826565b9050919050565b600061053e82610834565b61057d576040517f08c379a000000000000000000000000000000000000000000000000000000000815260040161057490610def565b60405180910390fd5b6000610588836103c2565b90508073ffffffffffffffffffffffffffffffffffffffff168473ffffffffffffffffffffffffffffffffffffffff1614806105f757508373ffffffffffffffffffffffffffffffffffffffff166105df846101c6565b73ffffffffffffffffffffffffffffffffffffffff16145b91505092915050565b600073ffffffffffffffffffffffffffffffffffffffff168273ffffffffffffffffffffffffffffffffffffffff161415610670576040517f08c379a000000000000000000000000000000000000000000000000000000000815260040161066790610e81565b60405180910390fd5b8273ffffffffffffffffffffffffffffffffffffffff16610690826103c2565b73ffffffffffffffffffffffffffffffffffffffff16146106e6576040517f08c379a00000000000000000000000000000000000000000000000000000000081526004016106dd90610f13565b60405180910390fd5b61072d600260008573ffffffffffffffffffffffffffffffffffffffff1673ffffffffffffffffffffffffffffffffffffffff1681526020019081526020016000206108a6565b610774600260008473ffffffffffffffffffffffffffffffffffffffff1673ffffffffffffffffffffffffffffffffffffffff1681526020019081526020016000206108c9565b816001600083815260200190815260200160002060006101000a81548173ffffffffffffffffffffffffffffffffffffffff021916908373ffffffffffffffffffffffffffffffffffffffff160217905550808273ffffffffffffffffffffffffffffffffffffffff168473ffffffffffffffffffffffffffffffffffffffff167fddf252ad1be2c89b69c2b068fc378daa952ba7f163c4a11628f55a4df523b3ef60405160405180910390a4505050565b600081600001549050919050565b6000806001600084815260200190815260200160002060009054906101000a900473ffffffffffffffffffffffffffffffffffffffff169050600073ffffffffffffffffffffffffffffffffffffffff168173ffffffffffffffffffffffffffffffffffffffff161415915050919050565b6108be600182600001546108e890919063ffffffff16565b816000018190555050565b60018160000160008282546108de9190610f62565b9250508190555050565b60008282111561092d576040517f08c379a000000000000000000000000000000000000000000000000000000000815260040161092490611004565b60405180910390fd5b6000828461093b9190611024565b90508091505092915050565b600080fd5b60007fffffffff0000000000000000000000000000000000000000000000000000000082169050919050565b6109818161094c565b811461098c57600080fd5b50565b60008135905061099e81610978565b92915050565b6000602082840312156109ba576109b9610947565b5b60006109c88482850161098f565b91505092915050565b60008115159050919050565b6109e6816109d1565b82525050565b6000602082019050610a0160008301846109dd565b92915050565b6000819050919050565b610a1a81610a07565b8114610a2557600080fd5b50565b600081359050610a3781610a11565b92915050565b600060208284031215610a5357610a52610947565b5b6000610a6184828501610a28565b91505092915050565b600073ffffffffffffffffffffffffffffffffffffffff82169050919050565b6000610a9582610a6a565b9050919050565b610aa581610a8a565b82525050565b6000602082019050610ac06000830184610a9c565b92915050565b610acf81610a8a565b8114610ada57600080fd5b50565b600081359050610aec81610ac6565b92915050565b60008060408385031215610b0957610b08610947565b5b6000610b1785828601610add565b9250506020610b2885828601610a28565b9150509250929050565b600080600060608486031215610b4b57610b4a610947565b5b6000610b5986828701610add565b9350506020610b6a86828701610add565b9250506040610b7b86828701610a28565b9150509250925092565b600060208284031215610b9b57610b9a610947565b5b6000610ba984828501610add565b91505092915050565b610bbb81610a07565b82525050565b6000602082019050610bd66000830184610bb2565b92915050565b600082825260208201905092915050565b7f4572726f72202d20617070726f76616c20746f2063757272656e74206f776e6560008201527f7200000000000000000000000000000000000000000000000000000000000000602082015250565b6000610c49602183610bdc565b9150610c5482610bed565b604082019050919050565b60006020820190508181036000830152610c7881610c3c565b9050919050565b7f43757272656e742063616c6c6572206973206e6f7420746865206f776e65722060008201527f6f662074686520746f6b656e0000000000000000000000000000000000000000602082015250565b6000610cdb602c83610bdc565b9150610ce682610c7f565b604082019050919050565b60006020820190508181036000830152610d0a81610cce565b9050919050565b7f6f776e657220717565727920666f72206e6f6e2d6578697374656e7420746f6b60008201527f656e000000000000000000000000000000000000000000000000000000000000602082015250565b6000610d6d602283610bdc565b9150610d7882610d11565b604082019050919050565b60006020820190508181036000830152610d9c81610d60565b9050919050565b7f746f6b656e20646f6573206e6f74206578697374000000000000000000000000600082015250565b6000610dd9601483610bdc565b9150610de482610da3565b602082019050919050565b60006020820190508181036000830152610e0881610dcc565b9050919050565b7f4572726f72202d20455243373231205472616e7366657220746f20746865207a60008201527f65726f2061646472657373000000000000000000000000000000000000000000602082015250565b6000610e6b602b83610bdc565b9150610e7682610e0f565b604082019050919050565b60006020820190508181036000830152610e9a81610e5e565b9050919050565b7f547279696e6720746f207472616e73666572206120746f6b656e20746865206160008201527f64647265737320646f6573206e6f74206f776e21000000000000000000000000602082015250565b6000610efd603483610bdc565b9150610f0882610ea1565b604082019050919050565b60006020820190508181036000830152610f2c81610ef0565b9050919050565b7f4e487b7100000000000000000000000000000000000000000000000000000000600052601160045260246000fd5b6000610f6d82610a07565b9150610f7883610a07565b9250827fffffffffffffffffffffffffffffffffffffffffffffffffffffffffffffffff03821115610fad57610fac610f33565b5b828201905092915050565b7f536166654d617468205375627472616374696f6e204f766572666c6f77000000600082015250565b6000610fee601d83610bdc565b9150610ff982610fb8565b602082019050919050565b6000602082019050818103600083015261101d81610fe1565b9050919050565b600061102f82610a07565b915061103a83610a07565b92508282101561104d5761104c610f33565b5b82820390509291505056fea2646970667358221220f7f14a31ba768b286a612c29e7ce226b427ece32a303ec639e6ec79667d1d87064736f6c634300080b0033",
  "immutableReferences": {},
  "source": "// SPDX-License-Identifier: MIT\npragma solidity ^0.8.0;\n\nimport './ERC165.sol';\nimport './interfaces/IERC721.sol';\nimport './libraries/Counters.sol';\n\n/*\n\nbuilding out the minting function:\n    a. nft to point to an address\n    b. keep track of the token ids\n    c. keep track of token owner addresses to token ids\n    d. keep track of how many tokens an owner address has\n    e. create an event that emits a transfer log - contract address,\n     where it is being minted to, the id\n\n*/\n\ncontract ERC721 is ERC165, IERC721 {\n\n    //to access a library data or functions -\n    // <library name>.<struct name>\n    //<library name>.<function name>\n    //Counters.Counter\n\n    //using SafeMath library for uint256\n    //to access - <data variable>.<library function>\n    using SafeMath for uint256;\n    //using Counters library for Counter struct\n    //to access - <data variable>.<library function>\n    using Counters for Counters.Counter;\n    // mapping in solidity creates a hash table of key pair values\n\n    // Mapping from token id to the owner\n    mapping(uint256 => address) private _tokenOwner;\n\n    // Mapping from owner to number of owned tokens \n    mapping(address => Counters.Counter) private _OwnedTokensCount;\n\n    // Mapping from token id to approved addresses\n    mapping(uint256 => address) private _tokenApprovals;\n\n\n    // EXERCISE: 1. REGISTER THE INTERFACE FOR THE ERC721 contract so that it includes\n    // the following functions: balanceOf, ownerOf, transferFrom\n    // *note by register the interface: write the constructors with the \n    // according byte conversions\n\n    // 2.REGISTER THE INTERFACE FOR THE ERC721Enumerable contract so that includes\n    // totalSupply, tokenByIndex, tokenOfOwnerByIndex functions\n\n    // 3.REGISTER THE INTERFACE FOR THE ERC721Metadata contract so that includes\n    // name and the symbol functions\n\n\n    constructor() {\n        _registerInterface(bytes4(keccak256('balanceOf(bytes4)') ^\n        keccak256('ownerOf(bytes4)') ^ keccak256('transferFrom(bytes4)')));\n    }\n\n    //we find the current balance\n    function balanceOf(address _owner) public override view returns (uint256) {\n        require(_owner != address(0), 'owner query for non-existent token');\n        return _OwnedTokensCount[_owner].current();\n    }\n\n    /// @notice Find the owner of an NFT\n    /// @dev NFTs assigned to zero address are considered invalid, and queries\n    ///  about them do throw.\n    /// @param _tokenId The identifier for an NFT\n    /// @return The address of the owner of the NFT\n    function ownerOf(uint256 _tokenId) public view override returns (address) {\n        address owner = _tokenOwner[_tokenId];\n        require(owner != address(0), 'owner query for non-existent token');\n        return owner;\n    }\n\n\n    function _exists(uint256 tokenId) internal view returns (bool){\n        // setting the address of nft owner to check the mapping\n        // of the address from tokenOwner at the tokenId \n        address owner = _tokenOwner[tokenId];\n        // return truthiness tha address is not zero\n        return owner != address(0);\n    }\n\n    //this function is not safe\n    //any type of mathematics can be held to dubious standards in solidity\n    function _mint(address to, uint256 tokenId) internal virtual {\n        // requires that the address isn't zero\n        require(to != address(0), 'ERC721: minting to the zero addres');\n        // requires that the token does not already exist\n        require(!_exists(tokenId), 'ERC721: token already minted');\n        // we are adding a new address with a token id for minting\n        _tokenOwner[tokenId] = to;\n        // keeping track of each address that is minting and adding one to the count\n        _OwnedTokensCount[to].increment();\n        //x = x + 1\n        //r = x + y\n        //if x = 4 , y = 3 then r = 4 + 3 = 7\n        //abs r >= x\n        // r = x - y, abs y <= x\n\n\n        emit Transfer(address(0), to, tokenId);\n    }\n\n    /// @notice Transfer ownership of an NFT \n    /// @dev Throws unless `msg.sender` is the current owner, an authorized\n    ///  operator, or the approved address for this NFT. Throws if `_from` is\n    ///  not the current owner. Throws if `_to` is the zero address. Throws if\n    ///  `_tokenId` is not a valid NFT.\n    /// @param _from The current owner of the NFT\n    /// @param _to The new owner\n    /// @param _tokenId The NFT to transfer\n    function _transferFrom(address _from, address _to, uint256 _tokenId) internal {\n        require(_to != address(0), 'Error - ERC721 Transfer to the zero address');\n        require(ownerOf(_tokenId) == _from, 'Trying to transfer a token the address does not own!');\n\n        _OwnedTokensCount[_from].decrement();\n        _OwnedTokensCount[_to].increment();\n\n        _tokenOwner[_tokenId] = _to;\n\n        emit Transfer(_from, _to, _tokenId);\n    }\n\n    function transferFrom(address _from, address _to, uint256 _tokenId) override public {\n        require(isApprovedOrOwner(msg.sender, _tokenId));\n        _transferFrom(_from, _to, _tokenId);\n\n    }\n\n    // 1. require that the person approving is the owner\n    // 2. we are approving an address to a token (tokenId)\n    // 3. require that we cant approve sending tokens of the owner to the owner (current caller)\n    // 4. update the map of the approval addresses\n\n    function approve(address _to, uint256 tokenId) public {\n        address owner = ownerOf(tokenId);\n        require(_to != owner, 'Error - approval to current owner');\n        require(msg.sender == owner, 'Current caller is not the owner of the token');\n        _tokenApprovals[tokenId] = _to;\n        emit Approval(owner, _to, tokenId);\n    }\n\n    function getApproved(uint256 _tokenId) public view returns (address){\n\n        return _tokenApprovals[_tokenId];\n    }\n\n    function isApprovedOrOwner(address spender, uint256 tokenId) internal view returns (bool) {\n        require(_exists(tokenId), 'token does not exist');\n        address owner = ownerOf(tokenId);\n        return (spender == owner || getApproved(tokenId) == spender);\n    }\n\n}\n\n",
  "sourcePath": "C:\\Data\\udemy-nft-marketplace-clarian\\FRONT END PROJECT STARTER KIT\\src\\contracts\\ERC721.sol",
  "compiler": {
    "name": "solc",
    "version": "0.8.11+commit.d7f03943.Emscripten.clang"
  },
  "schemaVersion": "3.4.4",
  "updatedAt": "2021-12-29T12:18:51.432Z",
  "devdoc": {
    "kind": "dev",
    "methods": {
      "ownerOf(uint256)": {
        "details": "NFTs assigned to zero address are considered invalid, and queries  about them do throw.",
        "params": {
          "_tokenId": "The identifier for an NFT"
        },
        "returns": {
          "_0": "The address of the owner of the NFT"
        }
      },
      "supportsInterface(bytes4)": {
        "details": "Interface identification is specified in ERC-165. This function  uses less than 30,000 gas.",
        "params": {
          "interfaceID": "The interface identifier, as specified in ERC-165"
        },
        "returns": {
          "_0": "`true` if the contract implements `interfaceID` and  `interfaceID` is not 0xffffffff, `false` otherwise"
        }
      }
    },
    "version": 1
  },
  "userdoc": {
    "kind": "user",
    "methods": {
      "ownerOf(uint256)": {
        "notice": "Find the owner of an NFT"
      },
      "supportsInterface(bytes4)": {
        "notice": "Query if a contract implements an interface"
      }
    },
    "version": 1
  }
}